:100000006F00F05213000000130000001300000006
:100010001300000013000000130000001300000094
:100020001300000013000000130000001300000084
:08003000130000007300100032
:100038000000000000000000EA0D00003A0E000079
:1000480000000000740C0000000000000000000028
:10005800760C0000780C0000000000000000000092
:100068007A0C000000000000040E000000000000F0
:100078007E0C0000800C0000820C0000840C000044
:10008800860C0000880C00008A0C00008C0C000014
:100098008E0C0000900C0000920C0000940C0000E4
:1000A800960C0000980C00009A0C00009C0C0000B4
:1000B8009E0C0000A00C0000A20C0000A40C000084
:1000C800A60C0000A80C0000AA0C0000AC0C000054
:1000D800AE0C0000B00C0000B20C0000B40C000024
:1000E800B60C0000B80C0000BA0C0000BC0C0000F4
:1000F800BE0C0000C00C0000C20C0000C40C0000C4
:10010800C60C0000C80C0000CA0C0000CC0C000093
:10011800CE0C0000D00C0000D20C0000D40C000063
:10012800D60C0000D80C0000DA0C0000DC0C000033
:10013800DE0C0000E00C0000E20C0000E40C000003
:10014800E60C0000E80C0000EA0C0000EC0C0000D3
:10015800EE0C0000F00C0000F20C0000F40C0000A3
:10016800F60C0000F80C0000FA0C0000FC0C000073
:10017800FE0C0000000D0000020D0000040D000040
:10018800060D0000080D00000A0D00000C0D00000F
:100198000E0D0000100D0000120D0000140D0000DF
:1001A800160D0000180D00001A0D00001C0D0000AF
:1001B8001E0D0000200D0000220D0000240D00007F
:1001C800260D0000280D00002A0D00002C0D00004F
:1001D8000000000000000000000000000000000017
:1001E8000000000000000000000000000000000007
:0801F8000000000000000000FF
:100200003D432A876373C3029377F700BDEFADE5E3
:10021000937606FF3D8ABA960CC34CC30CC74CC7F5
:100220004107E36BD7FE11E28280B306C3408A0622
:100230009702000096966780A6002307B700A306E2
:10024000B7002306B700A305B7002305B700A30432
:10025000B7002304B700A303B7002303B700A3022A
:10026000B7002302B700A301B7002301B700A30022
:10027000B7002300B700828093F5F50F93968500B1
:10028000D58D93960501D58D61B79396270097027A
:10029000000096968682E78086FA9680C1171D8FA9
:1002A0003E96E374C3F8A5B7011122CE0010F327E0
:1002B00010302326F4FE8327C4FE3E857244056178
:1002C0008280011122CE0010F32750302326F4FE45
:1002D0008327C4FE3E85724405618280011122CECF
:1002E0000010F32720F12326F4FE8327C4FE3E8569
:1002F000724405618280797106D622D40018232EBB
:10030000A4FC232CB4FC232AC4FC232604FE91A0C5
:10031000010093050004B747014013850780EF00F3
:10032000F010AA87FDD7832784FD13871700232C9D
:10033000E4FC83870700C207C183BE85B74701403D
:1003400013850780EF00D00B8327C4FE8507232683
:10035000F4FE0327C4FE832744FDE34BF7FA83270B
:1003600044FD3E85B250225445618280011122CE67
:1003700000102326A4FEB707002003A70708832741
:10038000C4FE3E9793874183636FF700B707002051
:1003900003A707088327C4FE3E97B7070220938769
:1003A000078063F4E700FD572DA0B707002003A7DF
:1003B00007088327C4FE3E97B707002023A0E7085D
:1003C000B707002003A707088327C4FEB307F04040
:1003D000BA973E85724405618280397122DE8000C1
:1003E0002326A4FC2324B4FC232604FE232004FE9D
:1003F000232404FE232E04FC232204FE232C04FCCD
:10040000832784FC9C47BD8B2326F4FE832784FC32
:100410009C47C18B89CB832784FCDC430327C4FE24
:10042000D98F2326F4FE832784FC9E2393F7F70FAE
:10043000E9CF8327C4FC9C432322F4FE232404FE3B
:100440005DA8832784FE0547B317F700232EF4FC2D
:10045000832784FC9E233E878327C4FDF98F2320B6
:10046000F4FE032704FE8327C4FD6311F7088327E6
:1004700084FE8A07232EF4FC8327C4FD3D47B3176F
:10048000F700232CF4FC832784FD93C7F7FF032791
:1004900044FEF98F2322F4FE8327C4FD0327C4FE04
:1004A000B317F700032744FED98F2322F4FE8327D6
:1004B00084FC984793078002631BF700832784FE20
:1004C00005473317F7008327C4FCD8CB05A0832743
:1004D00084FC984793078004631AF700832784FEFF
:1004E00005473317F7008327C4FC98CB832784FE86
:1004F00085072324F4FE032784FE9D47E3F3E7F4F6
:100500008327C4FC032744FE98C3832784FC9A23D3
:100510009307F00F63F0E70E8327C4FCDC4323222C
:10052000F4FE232404FE6DA8832784FEA10705475B
:10053000B317F700232EF4FC832784FC9E233E8709
:100540008327C4FDF98F2320F4FE032704FE8327AD
:10055000C4FD6312F708832784FE8A07232EF4FC68
:100560008327C4FD3D47B317F700232CF4FC8327F2
:1005700084FD93C7F7FF032744FEF98F2322F4FE7F
:100580008327C4FD0327C4FEB317F700032744FEE7
:10059000D98F2322F4FE832784FC98479307800297
:1005A000631BF700832784FEA10705473317F70075
:1005B0008327C4FCD8CB832784FC98479307800407
:1005C000631BF700832784FEA10705473317F70055
:1005D0008327C4FC98CB832784FE85072324F4FE5D
:1005E000032784FE9D47E3F1E7F48327C4FC032738
:1005F00044FED8C30100725421618280397122DE29
:1006000080002326A4FC232204FE232604FE2320AC
:1006100004FE232E04FC232C04FC232A04FC2324A4
:1006200004FEB7170240DC43B18B2322F4FE0327FC
:1006300044FE91476303F702032744FEA147630684
:10064000F702832744FE639C071C8327C4FC3717EB
:100650007A001307072098C3E1AA8327C4FC371741
:100660007A001307072098C3E1A2B7170240D843C6
:10067000B7073C00F98F2326F4FEB7170240D84392
:10068000C167F98F2320F4FEB7170240DC57A1831E
:10069000BD8B232EF4FCB7170240DC579183BD8B32
:1006A000232CF4FC8327C4FEC98389072326F4FE88
:1006B000B7F7FF1F9387C77098439167F98F91EB46
:1006C0000327C4FEC5476319F704C9472326F4FE70
:1006D000A1A00327C4FE89476315F700C947232655
:1006E000F4FE0327C4FEBD476318F700B547232671
:1006F000F4FE85472324F4FE0327C4FEC147631597
:10070000F700BD472326F4FE0327C4FEC547631543
:10071000F700C1472326F4FE832704FEA1E3B74771
:100720000240938707809C43C18B89CF0327C4FE77
:10073000B7177A00938707203307F7028327C4FC93
:1007400098C399A80327C4FEB7173D009387079065
:100750003307F7028327C4FC98C33DA8B7170240AC
:10076000D843B7070200F98F89CF0327C4FEB71714
:100770003D00938707903307F7028327C4FC98C393
:1007800021A80327C4FEB7177A00938707203307F1
:10079000F7028327C4FC98C3B7170240D857C16734
:1007A000F98FA5C3B7070020138707018327C4FD6E
:1007B000BA979C2393F7F70F3E87B7177A00938772
:1007C00007203307F702A9473357F702832784FD31
:1007D0008507B357F7022322F4FE032744FE83273D
:1007E000C4FEB307F7022322F4FEB7170240DC571A
:1007F000BD8B8507032744FE3357F7028327C4FCCC
:1008000098C3032784FE85476313F7028327C4FC3C
:100810009C4313D717008327C4FC98C309A88327D8
:10082000C4FC37177A001307072098C311A00100F2
:10083000B7170240DC4393F7070F2322F4FE832708
:1008400044FE91832322F4FEB7070020138707009C
:10085000832744FEBA979C2393F7F70F232AF4FCCF
:100860008327C4FC9843832744FD3357F70083272D
:10087000C4FCD8C3B7170240DC4393F707702322A8
:10088000F4FE832744FEA1832322F4FEB707002051
:1008900013870700832744FEBA979C2393F7F70F2B
:1008A000232AF4FC8327C4FCD843832744FD335711
:1008B000F7008327C4FC98C7B7170240D843916755
:1008C00093870780F98F2322F4FE832744FEAD83AC
:1008D0002322F4FEB707002013870700832744FE76
:1008E000BA979C2393F7F70F232AF4FC8327C4FCC1
:1008F000D843832744FD3357F7008327C4FCD8C768
:10090000B7170240D843B167F98F2322F4FE83273B
:1009100044FEB9832322F4FEB7070020138747085B
:10092000832744FEBA979C2393F7F70F232AF4FCFE
:100930008327C4FCD847832744FD3357F702832716
:10094000C4FC98CB0100725421618280011122CE37
:1009500000102326A4FE2324B4FE832784FE99CB13
:10096000B7170240944FB71702400327C4FE558FB4
:1009700098CF21A8B7170240944F8327C4FE13C70E
:10098000F7FFB7170240758F98CF010072440561D9
:1009900082805D7186C6A2C48008232EA4FA232C0F
:1009A000B4FA232604FE232404FE232204FE23207B
:1009B00004FE232E04FC8327C4FB232EF4FC832790
:1009C000C4FB9E2BC207C1832326F4FE0327C4FE6B
:1009D000B567FD17F98F2326F4FE832784FBFE23DA
:1009E0003E878327C4FED98F2326F4FE8327C4FEC7
:1009F0001397070141838327C4FB9AAB8327C4FB6A
:100A0000DE27C207C1832326F4FE0327C4FEBD6789
:100A10009387379FF98F2326F4FE832784FBDA23FD
:100A2000832784FB9E27D98F139707014183832750
:100A300084FBBE27D98FC207C1833E878327C4FEAC
:100A4000D98F2326F4FE8327C4FE13970701418321
:100A50008327C4FBDAA78327C4FBDE2BC207C1832D
:100A60002326F4FE0327C4FEC1679387F7CFF98FCF
:100A70002326F4FE832784FBDE273E878327C4FEDC
:100A8000D98F2326F4FE8327C4FE139707014183E1
:100A90008327C4FBDAAB930784FC3E8585360327A6
:100AA000C4FDB7470140938707806317F70083278A
:100AB00044FD2324F4FE29A0832704FD2324F4FE0F
:100AC0008327C4FBDE27C207C183C207C18763D265
:100AD0000702032784FEBA878607BA978E073E97D8
:100AE000832784FB9C438607B357F7022322F4FE37
:100AF00005A0032784FEBA878607BA978E073E971C
:100B0000832784FB9C438A07B357F7022322F4FE12
:100B1000032744FE93074006B357F70292072326A4
:100B2000F4FE8327C4FE13D7470093074006B3079C
:100B3000F702032744FEB307F7402320F4FE832780
:100B4000C4FBDE27C207C183C207C18763D2070285
:100B5000832704FE8E071387270393074006B357A6
:100B6000F7029D8B0327C4FED98F2326F4FE05A030
:100B7000832704FE92071387270393074006B35782
:100B8000F702BD8B0327C4FED98F2326F4FE8327EB
:100B9000C4FE1397070141838327C4FB9AA7010072
:100BA000B640264461618280011122CE00102326C6
:100BB000A4FE2324B4FE832784FE85C38327C4FEBA
:100BC000DE271397070141838967D98F13970701A0
:100BD00041838327C4FEDAA705A08327C4FEDE274E
:100BE000139707014183F977FD17F98F13970701D1
:100BF00041838327C4FEDAA7010072440561828025
:100C0000011122CE00102326A4FEAE872315F4FE88
:100C10008357A4FE93F7F71F139707014183832798
:100C2000C4FEDAA30100724405618280797122D684
:100C30000018232EA4FCAE87231DF4FC232604FEFB
:100C40008327C4FD9E231397070141838357A4FD87
:100C5000F98FC207C18389C785472326F4FE19A0EF
:100C6000232604FE8327C4FE3E85325445618280DC
:100C700001A001A001A001A001A001A001A001A06C
:100C800001A001A001A001A001A001A001A001A05C
:100C900001A001A001A001A001A001A001A001A04C
:100CA00001A001A001A001A001A001A001A001A03C
:100CB00001A001A001A001A001A001A001A001A02C
:100CC00001A001A001A001A001A001A001A001A01C
:100CD00001A001A001A001A001A001A001A001A00C
:100CE00001A001A001A001A001A001A001A001A0FC
:100CF00001A001A001A001A001A001A001A001A0EC
:100D000001A001A001A001A001A001A001A001A0DB
:100D100001A001A001A001A001A001A001A001A0CB
:100D200001A001A001A001A001A001A001A09701C4
:100D30000020938121B517F101201301A12C172563
:100D400000001305A5D797F5FF1F9385A52B1386E4
:100D5000018163FAC5008322050023A05500110517
:100D60009105E3EAC5FE138501819385418363778D
:100D7000B500232005001105E36DB5FEFD4273901B
:100D800002BCFD4273904280B762000093828208E9
:100D900073A0023097F2FFFF9382422A93E232005F
:100DA00073905230EF00C011970200009382C20E80
:100DB0007390123473002030011122CE00102326CC
:100DC000A4FE8327C4FEFD8B0547B316F70037E763
:100DD00000E08327C4FE95839387070A8A07BA97A2
:100DE00094C30100724405618280411122C600084B
:100DF00089671385C76CEF00A07A01003244410176
:100E000073002030411122C6000839457537EFF0D4
:100E10004FCB2A879387418298C7EFF02FCC2A8740
:100E200023A2E182EFF04FC82A8793874182D8C37B
:100E300001003244410173002030411122C60008F4
:100E400013850181F32510340CC113854181F325ED
:100E500020340CC113858181F32530340CC183A764
:100E60000181BE8589671385C76DE52B83A7418105
:100E7000BE8589671385876EED2383A78181BE8533
:100E800089671385876FF12B896713858770EF005A
:100E9000207101A0411106C622C40008212BDD2CBF
:100EA000A1458967138547746D2B8967138507777B
:100EB000EF00006F896713854778EF00606E01A02F
:100EC000411106C622C40008B71702409843B7175D
:100ED00002401367170098C3B7170240D443B717EF
:100EE00002403707FFF8758FD8C3B7170240944305
:100EF000B71702403707F7FE7D17758F98C3B717EE
:100F000002409443B71702403707FCFF7D17758FE7
:100F100098C3B7170240D443B7170240370781FF81
:100F20007D17758FD8C3B71702409443B717024097
:100F3000370700EC7D17758F98C3B7170240370746
:100F4000FF0098C7B717024023A60702312001000F
:100F5000B240224441018280411106C622C40008E9
:100F6000712031200100B240224441018280797118
:100F700006D622D400188545916713854700F932BB
:100F8000930700202312F4FE8D472324F4FEE1474B
:100F90002326F4FE930744FEBE85B7170140138550
:100FA0000780EFF08FC3F16793870720232AF4FCB3
:100FB000231C04FC231D04FC231E04FC231004FE3C
:100FC000A147231FF4FC930744FDBE85B7470140AA
:100FD000138507807D3A8545B74701401385078013
:100FE000E1360100B250225445618280011122CEC7
:100FF0000010232604FE232404FEB7170240944366
:10100000B71702404167558F98C3B71702409843FE
:10101000B7070200F98F2324F4FE8327C4FE850757
:101020002326F4FE832784FE91E70327C4FE856709
:10103000E31DF7FCB71702409843B7070200F98F8A
:1010400089C785472324F4FE19A0232404FE03271F
:1010500084FE85476311F70A37170240B71702402D
:101060005843D8C337170240B71702405843D8C374
:10107000B7170240D843B717024013670740D8C3D9
:10108000B7170240D443B71702403707C1FF7D1797
:10109000758FD8C3B7170240D443B71702404167D2
:1010A000558FD8C3B71702409443B717024037078C
:1010B0000001558F98C30100B71702409843B70746
:1010C0000002F98FF5DBB7170240D843B71702408B
:1010D000719BD8C3B7170240D843B71702401367B4
:1010E0002700D8C30100B7170240DC4313F7C7003D
:1010F000A147E31AF7FE01007244056182800111E5
:1011000022CE00102326A4FE8327C4FEFD8B0547B4
:10111000B316F70037E700E08327C4FE9583938773
:1011200007048A07BA9794C301007244056182805C
:10113000011122CE00102326A4FE8327C4FEFD8BBE
:101140000547B316F70037E700E08327C4FE958311
:10115000938707068A07BA9794C301007244056112
:101160008280011122CE00102326A4FE8327C4FE14
:10117000FD8B0547B316F70037E700E08327C4FE71
:101180009583938707088A07BA9794C3010072442E
:1011900005618280797106D622D4001839458537D9
:1011A0003945C13739456937896713850779CD2EA8
:1011B00089671385077BED2689679386877C896716
:1011C0001386477D854589671385077E592C8D6772
:1011D00013854781F12683A74182E983FD8B93859F
:1011E000070483A74182D583FD8B1386070483A759
:1011F0004182C183FD8B9386070483A74182A98323
:10120000FD8B1387070483A74182958313F5F701AC
:1012100083A74182FD8B938707043E88AA870D65CB
:10122000130545833D2C93874182DC4313F7370038
:101230008547630AF70293874182DC4313F737003F
:101240008947630FF70093874182DC4313F7370028
:101250008D476315F7009307000801A8814731A067
:101260009307000419A093070002BE858D671385BC
:101270004785C52AA30704FE0DA893874182DC4356
:101280000347F4FE85463397E600F98F91CB8347F9
:10129000F4FE93871704BE858D6713858788D12256
:1012A0008347F4FE8507A307F4FE0347F4FEE547F2
:1012B000E3F5E7FC2945F522B7270240DC4F898397
:1012C00013F7070C8147998F960793850708B7F79F
:1012D000FF1F9387077E9E233E86B7270240DC4F81
:1012E000898313F7070C8147998F96073E879307E9
:1012F000000C998FBE868D671385C7889D22930742
:1013000084FD3E85EFF08FAF032784FDB7470F00C4
:1013100093870724B357F702BE858D671385878DA2
:1013200089220327C4FDB7470F0093870724B357CB
:10133000F702BE858D671385078F2522032704FEDC
:10134000B7470F0093870724B357F702BE858D6711
:10135000138587903922032744FEB7470F009387F0
:101360000724B357F702BE858D6713850792D528EA
:10137000032784FEB7470F0093870724B357F7026C
:10138000BE858D6713858793E928938741829C47A3
:10139000BE858D671385C794E920B7170000938534
:1013A00047E98D671385C7966D280100B250225416
:1013B00045618280011106CE22CC0010B717024091
:1013C000DC532326F4FE8D671385879859288327DD
:1013D000C4FE63D607008D671385879A59200327BB
:1013E000C4FEB7070040F98F89C78D671385C79B77
:1013F0008D280327C4FEB7070020F98F89C78D67A2
:101400001385479DB9280327C4FEB7070010F98F3D
:1014100089C78D671385C79EA9200327C4FEB70718
:101420000008F98F89C78D671385C79F1D2803277B
:10143000C4FEB7070004F98F89C78D671385C7A05D
:101440000D202945B928B7170240D453B7170240D9
:1014500037070001558FD8D30100F240624405617F
:10146000828039713EDA2ED232D436D63AD842DC76
:1014700046DE9387818022CC804326CA06CEAA848A
:1014800009C41C4C99E3228515230C44541026866C
:10149000228536C6EF005015F2406244D2442161E5
:1014A000828001119387818022CC804306CEAA8559
:1014B00019C41C4C89E72AC62285CD29B24510449F
:1014C00022856244F24005616F003075011126CA21
:1014D0004AC806CE22CC4EC652C4AA842E8901C563
:1014E0001C4D91E3E1219C4C804499E326857D29A4
:1014F000971700009387C754631BF402C0405E2413
:10150000A18BB1C71C48A1C7FD59294A1C4483457A
:101510000900FD17B1E91CC463DD07062286A94551
:1015200026856120FD576308F502294535A09717E8
:1015300000009387E7526314F4008044C9B79717FB
:1015400000009387E74DE31CF4FAC0444DBFA28529
:101550002685112A55D97D55F2406244D24442492C
:10156000B249224A056182801CC4050963D707007D
:10157000184C63CAE700638845011C4013871700B5
:1015800018C08CA361B7228626850520E31035F9A3
:10159000D9B71C401387170018C0294798A371B703
:1015A00093878180AA85884315B7011122CC26CA6A
:1015B0004AC806CE4EC6AA842E89328401C51C4D67
:1015C00091E3ED2697170000938787476317F4068A
:1015D000C0401C4C1CC45E24A18BC1C31C48B5CFA9
:1015E0001C4808409379F90F1379F90F1D8D5C4859
:1015F0006346F500A2852685692C25E51C44050572
:10160000FD171CC41C401387170018C02380370126
:101610005C486388A7005E24858B81CBA94763164D
:10162000F900A2852685B5240DEDF24062444A8575
:10163000D2444249B24905618280971700009387DE
:1016400027426314F400804469B79717000093871A
:10165000273DE310F4F8C044ADBFA28526852120C4
:1016600041D17D59D9B741119387818026C28443E6
:1016700022C44AC006C62A892E8489C49C4C99E398
:1016800026852D26971700009387873B631BF4025E
:10169000C0400317C40093170701C18393F6870066
:1016A000ADEA93F6070195EEA5472320F9001367ED
:1016B00007045AA47D55B240224492440249410194
:1016C0008280971700009387A7396314F400804441
:1016D000C9B7971700009387A734E31CF4FAC044F6
:1016E0004DBF918B9DC34C5889C9930744046384B3
:1016F000F5004A853123232A04025E2423220400B4
:1017000093F7B7FD5EA41C481CC05E2493E78700D6
:101710005EA41C4899EB5E241307002093F707286A
:101720006385E700A2854A85A1215E2413F717008F
:101730001DC35C4823240400B307F0401CCC1C48A4
:101740000145B5FB8317C40013F707082DD793E7AE
:1017500007045EA485B7898B014791E3584818C4F4
:10176000F9BFDE25011122CC26CA06CE4AC84EC6D4
:1017700013F78700AA842E8479EBD841634DE000EB
:10178000B841634AE0000145F2406244D244424914
:10179000B2490561828058547DD703A9040093960D
:1017A000370123A0040063DB060670485E24918B9A
:1017B00099C75C401D8E5C5899C33C401D8E5C549B
:1017C0000C50814626858297FD575A24631DF500EB
:1017D0009440F54763E8D706B70740208507B3D79D
:1017E000D700858BA5C31C48232204001CC0931777
:1017F000370163D80700FD576314F5009C4091E35F
:1018000068C84C5823A02401BDDD930744046384B9
:10181000F5002685F526232A0402B5B70C500146AB
:10182000854626850297FD572A86E311F5F89C40E8
:10183000B5DF75476385E70059476393E70423A045
:10184000240191B7136707045AA47D5535BF83A9B6
:101850000501E38A09F203A905008D8B23A0350158
:1018600033093941014791E3D84918C4E35D20F1B8
:101870001C540C50CA864E86268582976347A0006A
:101880005E2493E707045EA4C9B7AA993309A94067
:10189000F1BF9C49B9CF011122CC06CE2A8411C5D3
:1018A0001C4D81E72EC61922B24597170000938779
:1018B0002719639BF5004C408397C50095C7228587
:1018C0006244F240056171BD971700009387471984
:1018D0006394F5000C44CDB7971700009387471425
:1018E000E39CF5FC4C44C9BFF240624401450561EC
:1018F000828001458280411122C406C62A844EA5F9
:1019000072A523200500232205002324050023229D
:10191000050623280500232A0500232C050021465F
:1019200081451305C505EFE0BF8D9717000093872C
:10193000E7B95CD097170000938707BC1CD49717B2
:1019400000009387E7BF5CD497170000938747C2D6
:1019500000D01CD8B240224441018280970500008B
:10196000938565F3A9A2411126C2130680069384CC
:10197000F5FFB384C4024AC02E8922C406C69385EB
:1019800044071D262A8401CD23200500232225019A
:10199000310508C4138684068145EFE07F862285E1
:1019A000B240224492440249410182801C4DADE381
:1019B000411106C622C497070000938767FA1CD519
:1019C0009387C1809C4323240504232605042328F0
:1019D00005046314F50085471CCD2A841D2848C0E2
:1019E0002285052808C422852D2048C44840014688
:1019F0009145113708440546A545F53D484409463B
:101A0000C945D53D85471CCCB24022444101828066
:101A1000828041119387C18026C284434AC006C692
:101A20009C4C22C42A8999E32685493793848404EF
:101A30008044DC40FD1763D607009C40B9CF84404A
:101A4000C5BF0317C40039E7C17785072322040601
:101A50002320040023220400232404005CC4232840
:101A60000400232A0400232C040021468145130589
:101A7000C405EFE0EFF8232A0402232C04022324F8
:101A80000404232604042285B240224492440249DD
:101A9000410182801304840671BF91454A85E13576
:101AA00088C051FDB1472320F9000144E9BF797195
:101AB00022D44AD052CC56CA5AC85EC606D626D2BE
:101AC0004ECE2A8AAE8A130485040149054BFD5B7C
:101AD00009ECB25022544A8592540259F249624AA2
:101AE000D24A424BB24B4561828004448329440070
:101AF000FD1963D409000040E1BFDE24637BFB00D5
:101B00008397E40063877701A6855285829A3369BB
:101B1000A90093848406E9BF1971A6DAAE8483957F
:101B2000E500A2DC86DE328463DB0500DE2423A030
:101B3000060093F7070885E7930700401DA03008CB
:101B400036C6EF007028B246E34205FE7247BD6715
:101B5000F98F7977BA9793B717009CC2F1BF9307B3
:101B600000041CC0F6506654D654014509618280B9
:101B7000DE25011122CC06CE26CA4AC8898B2E84C6
:101B800089CF930774041CC01CC885475CC8F24009
:101B90006244D24442490561828074003000AA84C4
:101BA000A53FA2452A892685012219E98317C40089
:101BB00013F7072069FFF19B93E727005EA4D1B7D5
:101BC000970700009387C7D99CD45E2408C008C833
:101BD00093E707085EA4A2475CC8B24781CF83158C
:101BE000E4002685EF00F02011C55E24F19B93E709
:101BF00017005EA45E243369F9002316240141BF57
:101C0000DDC183A7C5FF411122C406C626C21384C5
:101C1000C5FF63D307003E94AA84EF005024938746
:101C2000C1819C4381EF2322040023AE81802244A2
:101C3000B2402685924441016F009022637EF400F9
:101C400014403307D4006396E7009843DC4336978B
:101C500018C05CC0D9BFBA87D84319C3E37DE4FE7E
:101C600094433386D700631F86001040B29694C316
:101C70003386D700E31DC7FA10435843B29694C386
:101C8000D8C375B76375C400B1479CC04DB7104049
:101C9000B306C4006316D70014435843B29614C069
:101CA00058C0C0C369B78280011126CA9384350029
:101CB000F19806CE22CC4AC84EC6A104B14763F5BE
:101CC000F404B14463E4B4042A89EF005019938703
:101CD000C18198433A8429E4938701829C4399E720
:101CE00081454A85EF00A07B23A0A182A6854A8575
:101CF000EF00E07AFD5963193507B1472320F90059
:101D00004A85EF00F01529A0E3DE04FAB1471CC1B3
:101D10000145F2406244D2444249B24905618280A1
:101D20001C40858F63CF0702AD4663F6F6001CC0EA
:101D30003E9404C031A05C406313870223AEF1805F
:101D40004A85EF00F0111305B40093074400619930
:101D50003307F5405DDF3A94898F1CC05DBF5CC3DB
:101D6000C5B72287404085BF130435007198E30250
:101D700085FCB305A4404A851D27E31C35FBB5BF90
:101D80001C46FD171CC663DA0700184E63C5E70042
:101D9000A9476394F5006FF05F811C422E8513877D
:101DA000170018C28CA38280011122CC26CA4AC80F
:101DB0004EC652C406CE2A89AE893284B304D600F8
:101DC0007D5A63149400014501A80C204E864A8573
:101DD000453F0504E31745FFF2406244D2444249BF
:101DE000B249224A05618280357122CD26CB4AC98B
:101DF0004EC706CF52C556C35AC1DEDEE2DCE6DA74
:101E0000AA89AE843289368401C51C4D91E3793E9E
:101E1000971700009387C7C26398F40C83A4490006
:101E2000DE24A18BE5C79C48F5C393070002A304F9
:101E3000F1029307000302D22305F10222C6930B9D
:101E40005002971A0000938AAAC3054C294B4A8472
:101E50001C2099C3639F770DB30C2441638D0C0044
:101E6000E6864A86A6854E858137FD576300F51EB6
:101E70009256E69636D21C20638A071CFD5713093A
:101E8000140002C802CE3ECA02CCA309010482D4C7
:101E90008345090015465685EF00E07A13041900C2
:101EA000C24751E913F7070109C713070002A30945
:101EB000E10413F7870009C71307B002A309E1047F
:101EC000834609001307A002638FE606F2474A849F
:101ED00081462546182093051400130707FD6377F4
:101EE000E60AB5CA3ECE85A897170000938747B784
:101EF0006395F40083A4890025B7971700009387A2
:101F000027B2E39FF4F083A4C90019BFA6854E85CC
:101F1000EFF06FF519D97D55FA406A44DA444A4921
:101F2000BA492A4A9A4A0A4BF65B665CD65C0D614E
:101F30008280050431BF330555413315AC00C98F8C
:101F40003EC82289B1B7324793064700184336C6C8
:101F5000634707023ACE18209307E002631DF70497
:101F600018309307A002631BF702B24709041387D6
:101F700047009C433AC663C107023ECA2DA83307F7
:101F8000E04093E727003ACE3EC8F1B7B387670336
:101F900085462E84BA973DBFFD57C5B7050402CAD2
:101FA000814681472546182093051400130707FD35
:101FB0006374E606F9F20C200D46171500001305B0
:101FC000A5AC512511CD971700009387E7AB1D8D68
:101FD00093070004B397A700424505045D8D2AC806
:101FE0000C20194617150000130545AA1309140003
:101FF0002304B102892D35C197E7FFFF938787003E
:1020000095E74247B2471377071009CF91073EC6BD
:102010009257D2973ED225BDB387670385462E845B
:10202000BA9751B79D07E19BA107D5B778009706EE
:1020300000009386A6D726860C084E8597000000E0
:10204000E7000000FD572A8AE314F5FCDE2493F72D
:102050000704E39207EC1255C1B57800970600001B
:102060009386C6D426860C084E85012AE1BF797175
:1020700056CA9C49BA8A984522D426D24ECE52CC12
:1020800006D64AD05AC85EC6AA892E84B284368A39
:1020900063D3E700BA879CC00347340419C385079C
:1020A0009CC01C4093F7070281C79C4089079CC0D5
:1020B0000329040013796900631A0900130B9401C2
:1020C000FD5B5C449840998F634CF9041C40834647
:1020D000340493F70702B336D000A5EB130634049B
:1020E000D2854E85829AFD576303F5041C40114644
:1020F0009840998B544481446397C700B384E64069
:1021000063D3040081441C4418486354F700998F3A
:10211000BE94014969047D5B63982405014509A8C3
:1021200085465A86D2854E85829A631E75017D55F5
:10213000B250225492540259F249624AD24A424B56
:10214000B24B456182800509ADBF3307D400130649
:102150000003A301C7040347540493871600A29702
:102160008906A381E7049DBF85462286D2854E85D8
:10217000829AE30E65FB050945B7797122D426D210
:102180004AD04ECE06D652CC56CA5AC8B689942DDD
:10219000930790063289AA842E8413863504638DB2
:1021A000F60263E2D706930780056385F61863EDB0
:1021B000D700638D062093073004638EF60A930AD6
:1021C00024042301D404C9A0930730066385F60ACA
:1021D00093074006E395F6FE1C40084393F6070874
:1021E00093054500C5C61C410CC363D807001307FF
:1021F000D002B307F040A301E404971600009386D1
:102200006689294765A8930700076381F61663E589
:10221000D7029307E0066388F6189307F006E39069
:10222000F6FA0C401C4313F80508138547006307B2
:10223000080608C39C4385A893075007E383F6FE6E
:10224000930780076388F61293073007E399F6F641
:102250001C43D04181459386470014C383AA0700DD
:102260005685D52601C53305554148C05C401CC87C
:10227000A301040461A81C43930A24049386470025
:102280009C4314C32301F4048547D5B793F6070490
:102290001C410CC3B9DAC207C18781BF93F505049D
:1022A00008C3C9D99E231307F0066386E60E970676
:1022B00000009386267E2947A30104044C400CC4E9
:1022C00063C5050008406D9908C099E3B28A89CDBD
:1022D000B28AB3F5E702FD1AB6958C212380BA00C5
:1022E000B3D5E70263FFE70AA147631EF7001C406E
:1022F000858B91CB58401C4863C7E70093070003C8
:10230000A38FFAFEFD1A3306564110C84E87CA86BF
:102310007000A2852685A13B7D5A631D450B7D5526
:10232000B250225492540259F249624AD24A424B64
:1023300045618280A382D504970600009386867546
:102340000C40084313F805081C411105630D0802F1
:1023500008C313F7150001C793E505020CC04147F8
:10236000A1FF0C4093F5F5FD0CC0B9B79C4193E774
:1023700007029CC193078007A302F404970600009C
:102380009386867275BF13F8050408C3E30308FC3F
:10239000C207C1837DBF970600009386A66F2147C1
:1023A00021BFAE873DB794411C43CC4913F80608C2
:1023B000138547006306080008C39C438CC339A0FB
:1023C00008C393F606049C43F5DA8EA32328040081
:1023D000B28A2DBF14485686CA8526858299E300A5
:1023E00045F51C40898B8DE7B2474844E35AF5F226
:1023F0003E853DB785465686CA8526858299E30087
:1024000065F3050A5C443247998FE345FAFEE9BF5C
:10241000014A930A94017D5BF5B7011122CC06CEE7
:102420002A8409C91C4D99E732C62EC4EFF00FD893
:102430003246A24597070000938787606316F6022D
:1024400050401C46FD171CC663D00704184E63C7D6
:10245000E70093F7F50F29476398E7022285624466
:10246000F24005616FF06F94970700009387475F14
:102470006314F6001044F1B7970700009387475A9A
:10248000E311F6FC504475BF1C4213F5F50F13879A
:10249000170018C28CA3F24062440561828041118A
:1024A00022C42A842E8523A8018206C6EFD01FEC01
:1024B000FD576317F500938701839C4391C31CC0AC
:1024C000B240224441018280411122C42E8483956E
:1024D000E50006C67922634905007C48AA977CC8B6
:1024E000B2402244410182805E247D777D17F98FBE
:1024F0005EA4FDB7DE25011122CC26CA4AC84EC60D
:1025000006CE93F70710AA842E843289B68991C724
:102510008395E5008946014609225E247D777D1773
:10252000F98F5EA48315E4006244F240CE864A86A9
:10253000B24942492685D244056125A8411122C4E9
:102540002E848395E50006C6C928FD575A24631AD0
:10255000F500FD77FD17F98F5EA4B24022444101DA
:1025600082808567D98F5EA468C8C5BF8395E50062
:1025700005A8411122C42A842E85B285368623A857
:10258000018206C6EFD03FD7FD576317F50093874A
:1025900001839C4391C31CC0B2402244410182800C
:1025A000411122C42A842E8523A8018206C6C52093
:1025B000FD576317F500938701839C4391C31CC0AB
:1025C000B240224441018280411122C42A842E85D6
:1025D000B28523A8018206C6C920FD576317F500FE
:1025E000938701839C4391C31CC0B24022444101A4
:1025F0008280411122C42A842E8523A8018206C626
:102600005D20FD576317F500938701839C4391C3B9
:102610001CC0B240224441018280411122C42A845C
:102620002E85B285368623A8018206C65920FD571D
:102630006317F500938701839C4391C31CC0B2408C
:1026400022444101828093F5F50F2A966314C50058
:10265000014582801C21E38EB7FE0505C5BF82803F
:102660008280411122C42A842E85B285368623A811
:10267000018206C6A920FD576317F50093870183E1
:102680009C4391C31CC0B240224441018280930705
:10269000800523A8F1827D5582809307800523A8B9
:1026A000F1827D5582809307800523A8F182014540
:1026B00082809307800523A8F1827D55828093074D
:1026C000800523A8F1827D558280000073756666BF
:1026D00065726564204E4D492E0000006D65706383
:1026E0003D253038780D0A006D63617573653D25B1
:1026F0003038780D0A0000006D7476616C3D25302D
:1027000038780D0A000000004572726F723A41205D
:10271000686172644661756C7420686173206F63D0
:102720006375727265642E50726F6772616D206896
:102730006173206265656E20626C6F636B65642EE9
:10274000000000000D646F75626C6520E7B1BBE5A9
:102750009E8BE79A84E5AD97E88A82E695B0E69885
:10276000AF20257520E5AD97E88A822E0A0000008B
:102770000D456E746572206D61696E206C6F6F70AF
:102780002E0000000D6D61696E206C6F6F702E0061
:102790000A0A0DE69CABE7ABAFE98787E99B86E5C4
:1027A000928CE58886E69E90E8AEBEE5A4870000A0
:1027B0000DE8AEBEE5A487E5889DE5A78BE58C9680
:1027C000E280A6E280A6000030313A30343A30315F
:1027D000000000004A756E2032372032303234005B
:1027E0000DE59BBAE4BBB6E78988E69CACEFBC9AE2
:1027F0005625303478EFBC8CE7BC96E8AF91E6976D
:10280000A5E69C9FEFBC9A25732C2573E280A6E277
:1028100080A60A000DE4B8BBE68EA7E59E8BE58F87
:10282000B7EFBC9A434833325633303756435436A9
:102830002E0000000DE58685E6A0B8E59E8BE58FAD
:10284000B7EFBC9A2563256325632D256325642591
:10285000632E0A000DE58685E6A0B8E789B9E5BED6
:10286000812020E4BD8DE5AEBDEFBC9A256420E457
:10287000BD8D2CE694AFE68C81E68C87E4BBA4E9A1
:102880009B86EFBC9A000000256320000DE5AD9803
:10289000E582A8E9858DE7BDAEEFBC9A52414D3A7D
:1028A0002564204B422C464C4153483A2564204B2A
:1028B000422CE585B6E4B8ADE99BB6E7AD89E5BE47
:1028C00085E983A8E58886E5A4A7E5B08FEFBC9AE3
:1028D0002564204B422E0A000DE5BD93E5898DE469
:1028E000B8BBE9A2913A2564204D487A2E0A00002F
:1028F0000DE58685E6A0B8E9A291E78E873A2564C2
:10290000204D487A2E0A00000DE5A496E8AEBEE6FA
:1029100080BBE7BABF313A2564204D487A2E0A00C1
:102920000DE5A496E8AEBEE680BBE7BABF323A2515
:1029300064204D487A2E0A000D414443E9A291E7F4
:102940008E873A2564204D487A2E0A000DE4B8ADF2
:10295000E696ADE59091E9878FE8A1A8E59CA8EF00
:10296000BC9A3078253038782E0A00000D6D6169E8
:102970006EE587BDE695B0E59CA8EFBC9A3078255A
:102980003038782E0A0000000DE59BBAE4BBB6E5AE
:10299000BC80E5A78BE8BF90E8A18CEFBC8CE588F4
:1029A0009AE58F91E7949F00E4BD8EE58A9FE880C9
:1029B00097E5A48DE4BD8D2000000000E7AA97E50F
:1029C0008FA3E5BC80E997A8E78B97E5A48DE4BDCC
:1029D0008D200000E78BACE7AB8BE5BC80E997A8C6
:1029E000E78B97E5A48DE4BD8D200000E8BDAFE442
:1029F000BBB6E5A48DE4BD8D20000000E68E89E71E
:102A000094B5E5A48DE4BD8D20000000E6898BE53A
:102A10008AA8E5A48DE4BD8D200000000000000020
:102A200000000000000000000000000000000000A6
:102A30000000000000000000000000000000000096
:102A40000000000000000000000000000000000086
:102A50000000000000000000000000000000000076
:102A60000000000000000000000000000000000066
:102A7000000000000000000000000000232D302BAB
:102A800020000000686C4C00656667454647000002
:102A90003031323334353637383941424344454694
:102AA0000000000030313233343536373839616256
:082AB00063646566000000008C
:102AB80000000000010203040102030406070809DC
:102AC800197D28323C46505A646E78828C96A0C88C
:102AD800000000003C2A00005C2A00001C2A0000BC
:102AE80000000000000000000000000000000000DE
:102AF80000000000000000000000000000000000CE
:102B080000000000000000000000000000000000BD
:102B180000000000000000000000000000000000AD
:102B2800000000000000000000000000000000009D
:102B3800B400002002040608200000202000002025
:00000001FF
